S0150000436F6D756E69636163696F6E312E7372656306
S113000079C0000089C0000087C0000085C00000DE
S113001083C0000081C000007FC000007DC00000DC
S11300207BC0000079C0000077C0000075C00000EC
S113003073C0000071C000006FC000006DC00000FC
S11300406BC0000069C0000067C0000065C000000C
S113005063C0000061C000005FC000005DC000001C
S11300605BC000005AC0000057C0000055C000002B
S113007053C0000051C000004FC000004DC000003C
S11300804BC0000049C0000047C0000045C000004C
S113009043C0000041C000003FC000003DC000005C
S11300A03BC0000039C0000037C0000035C000006C
S11300B033C0000031C000002FC000002DC000007C
S11300C02BC0000029C0000027C0000025C000008C
S11300D023C0000021C000001FC000001DC000009C
S11300E01BC000000001140128013C0150015C0107
S11300F070018F0111241FBECFEFD1E2DEBFCDBF4F
S113010000E00CBF24E0A0E0B2E001C01D92A930E1
S1130110B207E1F7B2D1E1C173CF1F920F920FB6CC
S11301200F9211240BB60F928F93EF93FF93E091EC
S1130130080481E08E0F80930804F0E08091C600EB
S1130140EB5FFC4F8083FF91EF918F910F900BBE7B
S11301500F900FBE0F901F901895E2ECF0E0808195
S11301608F7B808380818F77808380818F7E808363
S113017080818F7D80838081877F8083808182607E
S11301808083808184608083E1ECF0E080818B7FD8
S11301908083A0ECB0E08C918D7F8C9387E690E017
S11301A09093C5008093C40080818860808380819F
S11301B0806180838081806880830895E82FF0E0E7
S11301C0EB5FFC4F8081803F29F4809101028160C4
S11301D0809301020895CF93C82F809106048C1751
S11301E009F4C9C090910002492F50E048305105EC
S11301F008F0B9C0FA018827EE58FF4F8F4F65C148
S1130200E0910604F0E0EB5FFC4F8081853521F43A
S11302109F5F90930002A9C010920002809106048F
S1130220815080930604A1C0E0910604F0E0EB5FE6
S1130230FC4F80818E3421F49F5F9093000295C01F
S113024010920002809106048150809306048DC0B0
S1130250E0910604F0E0EB5FFC4F8081853421F4EB
S11302609F5F9093000281C0109200028091060467
S113027081508093060479C0E0910604F0E0EB5FBE
S1130280FC4F8081823521F49F5F909300026DC002
S1130290109200028091060481508093060465C088
S11302A0E0910604F0E0EB5FFC4F80818093040250
S11302B09F5F9093000259C0E0910604F0E0EB5F69
S11302C0FC4F8081811104C09F5F909300024DC058
S11302D0109200028091060481508093060445C068
S11302E0E0910604F0E0EB5FFC4F80818A3379F4FF
S11302F02091040286E38227809303029F5F9093F8
S11303000002809106048F5F809302022EC0109237
S113031000028091060481508093060426C08091D7
S11303200402823058F0E0910604F0E0EB5FFC4FE9
S1130330908120910302922790930302815080932D
S11303400402811112C010920002E0910604F0E050
S1130350EB5FFC4F908180910302981306C080915B
S113036002022CDF02C010920002809106048F5F0B
S11303708093060432CFCF910895E091050491E073
S11303809E0F90930504F0E0EB5FFD4F95E590839D
S1130390E091050491E09E0F90930504F0E0EB5F7B
S11303A0FD4F9EE49083E091050491E09E0F9093AD
S11303B00504F0E0EB5FFD4F95E49083E0910504C4
S11303C091E09E0F90930504F0E0EB5FFD4F92E502
S11303D09083803F79F5E091050491E09E0F90931E
S11303E00504F0E0EB5FFD4F92E09083E09105049B
S11303F091E09E0F90930504F0E0EB5FFD4F1082B7
S1130400E091050491E09E0F90930504F0E0EB5F0A
S1130410FD4F9AE39083E091050491E09E0F909341
S11304200504F0E0EB5FFD4F8083809101028E7F35
S113043080930102109203028091070490910504B5
S1130440891760F4E82FF0E0EB5FFD4F9081209175
S113045003029227909303028F5FF0CF80910302EF
S1130460882351F0E091050491E09E0F90930504D8
S1130470F0E0EB5FFD4F808308956FDE78949091F8
S1130480080480910604981719F080910804A3DEEB
S11304908091010280FF02C080EF6FDF909107041A
S11304A080910504981759F38091C00085FFFCCF13
S11304B0E091070481E08E0F80930704F0E0EB5F86
S11304C0FD4F80818093C600E9CFEE0FFF1F881F88
S11104D08BBF0790F691E02D1994F894FFCF9E
S9030000FC
